{
  "contractName": "Wallet",
  "abi": [
    {
      "inputs": [
        {
          "internalType": "address[]",
          "name": "_approvers",
          "type": "address[]"
        },
        {
          "internalType": "uint256",
          "name": "_quorum",
          "type": "uint256"
        }
      ],
      "stateMutability": "nonpayable",
      "type": "constructor"
    },
    {
      "inputs": [
        {
          "internalType": "address",
          "name": "",
          "type": "address"
        },
        {
          "internalType": "uint256",
          "name": "",
          "type": "uint256"
        }
      ],
      "name": "approvals",
      "outputs": [
        {
          "internalType": "bool",
          "name": "",
          "type": "bool"
        }
      ],
      "stateMutability": "view",
      "type": "function"
    },
    {
      "inputs": [
        {
          "internalType": "uint256",
          "name": "",
          "type": "uint256"
        }
      ],
      "name": "approvers",
      "outputs": [
        {
          "internalType": "address",
          "name": "",
          "type": "address"
        }
      ],
      "stateMutability": "view",
      "type": "function"
    },
    {
      "inputs": [],
      "name": "quorum",
      "outputs": [
        {
          "internalType": "uint256",
          "name": "",
          "type": "uint256"
        }
      ],
      "stateMutability": "view",
      "type": "function"
    },
    {
      "inputs": [
        {
          "internalType": "uint256",
          "name": "",
          "type": "uint256"
        }
      ],
      "name": "transfers",
      "outputs": [
        {
          "internalType": "uint256",
          "name": "id",
          "type": "uint256"
        },
        {
          "internalType": "uint256",
          "name": "amount",
          "type": "uint256"
        },
        {
          "internalType": "address payable",
          "name": "to",
          "type": "address"
        },
        {
          "internalType": "uint256",
          "name": "approvals",
          "type": "uint256"
        },
        {
          "internalType": "bool",
          "name": "sent",
          "type": "bool"
        }
      ],
      "stateMutability": "view",
      "type": "function"
    },
    {
      "stateMutability": "payable",
      "type": "receive"
    },
    {
      "inputs": [],
      "name": "getApprovers",
      "outputs": [
        {
          "internalType": "address[]",
          "name": "",
          "type": "address[]"
        }
      ],
      "stateMutability": "view",
      "type": "function"
    },
    {
      "inputs": [],
      "name": "getTransfers",
      "outputs": [
        {
          "components": [
            {
              "internalType": "uint256",
              "name": "id",
              "type": "uint256"
            },
            {
              "internalType": "uint256",
              "name": "amount",
              "type": "uint256"
            },
            {
              "internalType": "address payable",
              "name": "to",
              "type": "address"
            },
            {
              "internalType": "uint256",
              "name": "approvals",
              "type": "uint256"
            },
            {
              "internalType": "bool",
              "name": "sent",
              "type": "bool"
            }
          ],
          "internalType": "struct Wallet.Transfer[]",
          "name": "",
          "type": "tuple[]"
        }
      ],
      "stateMutability": "view",
      "type": "function"
    },
    {
      "inputs": [
        {
          "internalType": "uint256",
          "name": "amount",
          "type": "uint256"
        },
        {
          "internalType": "address payable",
          "name": "to",
          "type": "address"
        }
      ],
      "name": "createTransfer",
      "outputs": [],
      "stateMutability": "nonpayable",
      "type": "function"
    },
    {
      "inputs": [
        {
          "internalType": "uint256",
          "name": "id",
          "type": "uint256"
        }
      ],
      "name": "approveTransfers",
      "outputs": [],
      "stateMutability": "nonpayable",
      "type": "function"
    }
  ],
  "bytecode": "0x60806040523480156200001157600080fd5b5060405162001303380380620013038339818101604052620000379190810190620001ef565b81600090805190602001906200004f9291906200005f565b5080600181905550505062000312565b828054828255906000526020600020908101928215620000db579160200282015b82811115620000da5782518260006101000a81548173ffffffffffffffffffffffffffffffffffffffff021916908373ffffffffffffffffffffffffffffffffffffffff1602179055509160200191906001019062000080565b5b509050620000ea9190620000ee565b5090565b6200013191905b808211156200012d57600081816101000a81549073ffffffffffffffffffffffffffffffffffffffff021916905550600101620000f5565b5090565b90565b6000815190506200014581620002de565b92915050565b600082601f8301126200015d57600080fd5b8151620001746200016e8262000277565b62000249565b915081818352602084019350602081019050838560208402820111156200019a57600080fd5b60005b83811015620001ce5781620001b3888262000134565b8452602084019350602083019250506001810190506200019d565b5050505092915050565b600081519050620001e981620002f8565b92915050565b600080604083850312156200020357600080fd5b600083015167ffffffffffffffff8111156200021e57600080fd5b6200022c858286016200014b565b92505060206200023f85828601620001d8565b9150509250929050565b6000604051905081810181811067ffffffffffffffff821117156200026d57600080fd5b8060405250919050565b600067ffffffffffffffff8211156200028f57600080fd5b602082029050602081019050919050565b6000620002ad82620002b4565b9050919050565b600073ffffffffffffffffffffffffffffffffffffffff82169050919050565b6000819050919050565b620002e981620002a0565b8114620002f557600080fd5b50565b6200030381620002d4565b81146200030f57600080fd5b50565b610fe180620003226000396000f3fe60806040526004361061007f5760003560e01c80636cb3e8ef1161004e5780636cb3e8ef146101335780639377d7111461015e578063d3650fb81461019f578063ffabc673146101dc57610086565b80631703a0181461008b5780632f65142c146100b65780634c12fa47146100e157806364b711451461010a57610086565b3661008657005b600080fd5b34801561009757600080fd5b506100a0610219565b6040516100ad9190610e1b565b60405180910390f35b3480156100c257600080fd5b506100cb61021f565b6040516100d89190610d7e565b60405180910390f35b3480156100ed57600080fd5b5061010860048036036101039190810190610a79565b61030d565b005b34801561011657600080fd5b50610131600480360361012c9190810190610a50565b6104e7565b005b34801561013f57600080fd5b5061014861086c565b6040516101559190610d5c565b60405180910390f35b34801561016a57600080fd5b5061018560048036036101809190810190610a50565b6108fa565b604051610196959493929190610e36565b60405180910390f35b3480156101ab57600080fd5b506101c660048036036101c19190810190610a50565b61096a565b6040516101d39190610d41565b60405180910390f35b3480156101e857600080fd5b5061020360048036036101fe9190810190610a14565b6109a6565b6040516102109190610da0565b60405180910390f35b60015481565b60606002805480602002602001604051908101604052809291908181526020016000905b8282101561030457838290600052602060002090600502016040518060a001604052908160008201548152602001600182015481526020016002820160009054906101000a900473ffffffffffffffffffffffffffffffffffffffff1673ffffffffffffffffffffffffffffffffffffffff1673ffffffffffffffffffffffffffffffffffffffff168152602001600382015481526020016004820160009054906101000a900460ff16151515158152505081526020019060010190610243565b50505050905090565b600080905060008090505b6000805490508110156103a2573373ffffffffffffffffffffffffffffffffffffffff166000828154811061034957fe5b9060005260206000200160009054906101000a900473ffffffffffffffffffffffffffffffffffffffff1673ffffffffffffffffffffffffffffffffffffffff16141561039557600191505b8080600101915050610318565b5060011515811515146103ea576040517f08c379a00000000000000000000000000000000000000000000000000000000081526004016103e190610ddb565b60405180910390fd5b60026040518060a0016040528060028054905081526020018581526020018473ffffffffffffffffffffffffffffffffffffffff16815260200160008152602001600015158152509080600181540180825580915050600190039060005260206000209060050201600090919091909150600082015181600001556020820151816001015560408201518160020160006101000a81548173ffffffffffffffffffffffffffffffffffffffff021916908373ffffffffffffffffffffffffffffffffffffffff1602179055506060820151816003015560808201518160040160006101000a81548160ff0219169083151502179055505050505050565b600080905060008090505b60008054905081101561057c573373ffffffffffffffffffffffffffffffffffffffff166000828154811061052357fe5b9060005260206000200160009054906101000a900473ffffffffffffffffffffffffffffffffffffffff1673ffffffffffffffffffffffffffffffffffffffff16141561056f57600191505b80806001019150506104f2565b5060011515811515146105c4576040517f08c379a00000000000000000000000000000000000000000000000000000000081526004016105bb90610ddb565b60405180910390fd5b60001515600283815481106105d557fe5b906000526020600020906005020160040160009054906101000a900460ff16151514610636576040517f08c379a000000000000000000000000000000000000000000000000000000000815260040161062d90610dbb565b60405180910390fd5b60001515600360003373ffffffffffffffffffffffffffffffffffffffff1673ffffffffffffffffffffffffffffffffffffffff168152602001908152602001600020600084815260200190815260200160002060009054906101000a900460ff161515146106da576040517f08c379a00000000000000000000000000000000000000000000000000000000081526004016106d190610dfb565b60405180910390fd5b6001600360003373ffffffffffffffffffffffffffffffffffffffff1673ffffffffffffffffffffffffffffffffffffffff168152602001908152602001600020600084815260200190815260200160002060006101000a81548160ff0219169083151502179055506002828154811061075057fe5b9060005260206000209060050201600301600081548092919060010191905055506001546002838154811061078157fe5b90600052602060002090600502016003015410610868576001600283815481106107a757fe5b906000526020600020906005020160040160006101000a81548160ff0219169083151502179055506000600283815481106107de57fe5b906000526020600020906005020160020160009054906101000a90505060006002848154811061080a57fe5b90600052602060002090600502016001015490508173ffffffffffffffffffffffffffffffffffffffff166108fc829081150290604051600060405180830381858888f19350505050158015610864573d6000803e3d6000fd5b5050505b5050565b606060008054806020026020016040519081016040528092919081815260200182805480156108f057602002820191906000526020600020905b8160009054906101000a900473ffffffffffffffffffffffffffffffffffffffff1673ffffffffffffffffffffffffffffffffffffffff16815260200190600101908083116108a6575b5050505050905090565b6002818154811061090757fe5b90600052602060002090600502016000915090508060000154908060010154908060020160009054906101000a900473ffffffffffffffffffffffffffffffffffffffff16908060030154908060040160009054906101000a900460ff16905085565b6000818154811061097757fe5b906000526020600020016000915054906101000a900473ffffffffffffffffffffffffffffffffffffffff1681565b60036020528160005260406000206020528060005260406000206000915091509054906101000a900460ff1681565b6000813590506109e481610f66565b92915050565b6000813590506109f981610f7d565b92915050565b600081359050610a0e81610f94565b92915050565b60008060408385031215610a2757600080fd5b6000610a35858286016109d5565b9250506020610a46858286016109ff565b9150509250929050565b600060208284031215610a6257600080fd5b6000610a70848285016109ff565b91505092915050565b60008060408385031215610a8c57600080fd5b6000610a9a858286016109ff565b9250506020610aab858286016109ea565b9150509250929050565b6000610ac18383610b03565b60208301905092915050565b6000610ad98383610cbb565b60a08301905092915050565b610aee81610f1e565b82525050565b610afd81610f1e565b82525050565b610b0c81610f0c565b82525050565b610b1b81610f0c565b82525050565b6000610b2c82610ea9565b610b368185610ed9565b9350610b4183610e89565b8060005b83811015610b72578151610b598882610ab5565b9750610b6483610ebf565b925050600181019050610b45565b5085935050505092915050565b6000610b8a82610eb4565b610b948185610eea565b9350610b9f83610e99565b8060005b83811015610bd0578151610bb78882610acd565b9750610bc283610ecc565b925050600181019050610ba3565b5085935050505092915050565b610be681610f30565b82525050565b610bf581610f30565b82525050565b6000610c08601e83610efb565b91507f7472616e736665722068617320616c7265616479206265656e2073656e7400006000830152602082019050919050565b6000610c48601583610efb565b91507f6f6e6c7920617070726f76657220616c6c6f77656400000000000000000000006000830152602082019050919050565b6000610c88601f83610efb565b91507f74686973207472616e7366657220686173206265656e20617070726f766564006000830152602082019050919050565b60a082016000820151610cd16000850182610d23565b506020820151610ce46020850182610d23565b506040820151610cf76040850182610ae5565b506060820151610d0a6060850182610d23565b506080820151610d1d6080850182610bdd565b50505050565b610d2c81610f5c565b82525050565b610d3b81610f5c565b82525050565b6000602082019050610d566000830184610b12565b92915050565b60006020820190508181036000830152610d768184610b21565b905092915050565b60006020820190508181036000830152610d988184610b7f565b905092915050565b6000602082019050610db56000830184610bec565b92915050565b60006020820190508181036000830152610dd481610bfb565b9050919050565b60006020820190508181036000830152610df481610c3b565b9050919050565b60006020820190508181036000830152610e1481610c7b565b9050919050565b6000602082019050610e306000830184610d32565b92915050565b600060a082019050610e4b6000830188610d32565b610e586020830187610d32565b610e656040830186610af4565b610e726060830185610d32565b610e7f6080830184610bec565b9695505050505050565b6000819050602082019050919050565b6000819050602082019050919050565b600081519050919050565b600081519050919050565b6000602082019050919050565b6000602082019050919050565b600082825260208201905092915050565b600082825260208201905092915050565b600082825260208201905092915050565b6000610f1782610f3c565b9050919050565b6000610f2982610f3c565b9050919050565b60008115159050919050565b600073ffffffffffffffffffffffffffffffffffffffff82169050919050565b6000819050919050565b610f6f81610f0c565b8114610f7a57600080fd5b50565b610f8681610f1e565b8114610f9157600080fd5b50565b610f9d81610f5c565b8114610fa857600080fd5b5056fea2646970667358221220ebefffe7e246879bd23d3a10362273cb9d173e08a23c32bbc4600c3c48ec620264736f6c63430006000033",
  "source": "pragma solidity 0.6.0;\r\npragma experimental ABIEncoderV2;\r\n\r\ncontract Wallet {\r\n    address [] public approvers;\r\n    uint public quorum;\r\n    struct Transfer {\r\n        uint id;\r\n        uint amount;\r\n        address payable to;\r\n        uint approvals;\r\n        bool sent; \r\n        \r\n    }\r\n    Transfer[] public transfers;\r\n    mapping(address => mapping(uint => bool)) public approvals;\r\n    //uint public nextId;\r\n    \r\n    constructor(address[] memory _approvers, uint _quorum ) public {\r\n        approvers = _approvers;\r\n        quorum = _quorum;\r\n    }\r\n    \r\n\r\n    function getApprovers() external view returns(address[] memory) {\r\n        return approvers;\r\n    }\r\n    \r\n    \r\n    function getTransfers() external view returns(Transfer[] memory) {\r\n        return transfers;\r\n    }\r\n    \r\n    // function createTransfer(uint amount, address payable to) public {\r\n    //     transfers[nextId] = Transfer(nextId, amount, to, 0, false); \r\n    //     nextId++;\r\n    // }\r\n    function createTransfer(uint amount, address payable to) external onlyApproval() {\r\n    transfers.push(Transfer(transfers.length, amount, to, 0, false));\r\n\r\n    }\r\n    \r\n    function approveTransfers(uint id) external onlyApproval() {\r\n        require(transfers[id].sent == false, 'transfer has already been sent');\r\n        require(approvals[msg.sender][id] == false, 'this transfer has been approved');\r\n        \r\n        approvals[msg.sender][id] = true;\r\n        transfers[id].approvals++;\r\n        \r\n        if(transfers[id].approvals >= quorum) {\r\n           transfers[id].sent = true;\r\n           address payable to;transfers[id].to;\r\n           uint amount = transfers[id].amount;\r\n           to.transfer(amount);\r\n        }\r\n    }\r\n    \r\n    receive() external payable { \r\n        \r\n    }\r\n    \r\n    modifier onlyApproval() {\r\n        bool allowed = false;\r\n        for(uint i = 0; i < approvers.length; i++) {\r\n         if(approvers[i] == msg.sender) {\r\n             allowed = true;\r\n         }   \r\n        }\r\n        require(allowed == true, 'only approver allowed');\r\n        _;\r\n        \r\n    }\r\n}",
  "sourcePath": "C:\\Users\\FAVOUR\\Downloads\\cmder\\wallet-contract\\contracts\\wallet.sol",
  "compiler": {
    "name": "solc",
    "version": "0.6.0+commit.26b70077.Emscripten.clang"
  },
  "schemaVersion": "3.4.3",
  "updatedAt": "2021-09-09T04:20:39.419Z",
  "devdoc": {
    "methods": {}
  },
  "userdoc": {
    "methods": {}
  }
}